J19UUA56872A031494             20211103CRUSH                  NPICK N PULL                                            FAIRFIELD                CA8004390360PNPHELPDESK@SCHN.COM                                        N0001
J19UUA56872A031494             20211103SCRAP                  NPICK N PULL                                            FAIRFIELD                CA8004390360PNPHELPDESK@SCHN.COM                                        N0002
J19UUA56872A031494             20210304SOLD                   NIAA                                                    WESTCHESTER              IL7084927000                                                            N0003
J19UUA56872A031494             20210304                       NIAA                                                    WESTCHESTER              IL7084927000                                                            N0004
CJSI  MY0000000112025101000000000420251011                                                                                                                                                                                  
