J1FTCF15N5HLA06223             20091030SCRAP                  NBUY SALVAGE VEHICLE FROM US                            PHOENIX                  AZ6152153265BUYSALVAG@SALVAGE.COM                                       N0001
J1FTCF15N5HLA06223             20091001SALVAGE                YBUY SALVAGE VEHICLE FROM US                            PHOENIX                  AZ6152153265BUYSALVAG@SALVAGE.COM                                       Y0002
J3B7KF23DXVG700810             20071210CRUSH                  NBUY SALVAGE VEHICLE FROM US                            PHOENIX                  AZ6152153265BUYSALVAG@SALVAGE.COM                                       N0001
CJSI  MY0000000072025021000000000320250210                                                                                                                                                                                  
