J1C3CCCCG9FN501449AB           20201020                       NWELLERS                                                WITTENBERG               WI7156776757                                                            N0001
J2B3CJ5DTXAH318394B            20250130SALVAGE                NSTATE FARM INSURANCE                                   BLOOMINGTON              IL5558675309                                                            Y0001
J2C4GP54L02R604104B            20201020                       NWELLERS                                                WITTENBERG               WI7156776757                                                            N0001
J3VV3B7AX4JM053487B            20250108RETAINED               NNICE AND CLEAN AUTOS LLC                               TAMPA                    FL8132232800                                                            N0001
CJSI  MY0000000722025051300000000420250515                                                                                                                                                                                  
